:100000000C942A000C9447000C9447000C94470071
:100010000C9447000C9447000C940B110C9447006F
:100020000C9447000C94E6100C9447000C94470085
:100030000C9447000C9447000C9447000C94470024
:100040000C9447000C9447000C9447000C94470014
:100050000C94470011241FBECFE5D8E0DEBFCDBF12
:1000600012E0A0E6B0E0E0E8FCE202C005900D92EC
:10007000A43EB107D9F713E0A4EEB2E001C01D928F
:10008000A730B107E1F70E9442150C943E160C947C
:100090000000EF92FF920F931F937B018C0120E0F1
:1000A00030E040E05FE40E94C50388238CF0C80183
:1000B000B70120E030E040E05FE40E94C1010E940F
:1000C000F5039B01AC01205030404040504806C031
:1000D000C801B7010E94F5039B01AC01B901CA0137
:1000E0001F910F91FF90EF900895A0E0B0E0EBE733
:1000F000F0E00C940716DC012B01FA019C91923080
:1001000008F439C1EB018881823008F433C194309E
:1001100069F4843009F02FC111969C91119789815F
:10012000981709F428C1A9EAB1E025C1843009F47F
:1001300021C18230A9F4923009F01DC19A01AD01AC
:1001400088E0EA010990AE01E90109929E0181501F
:10015000C1F7E201898111969C918923818308C1AD
:10016000923009F407C112962D903C901397EB0141
:100170008A819B811496AD90BD90CD90DC901797AD
:10018000EC80FD800E811F819101281B390BB90184
:1001900037FF04C066277727621B730B6032710537
:1001A0000CF061C0121613066CF537014801062EDB
:1001B00004C096948794779467940A94D2F721E0C8
:1001C00030E040E050E004C0220F331F441F551FB1
:1001D0006A95D2F721503040404050402E213F21B7
:1001E00040235123211531054105510521F021E01E
:1001F00030E040E050E079018A01E628F72808293C
:1002000019293CC0232BD1F1260E371E350146019A
:10021000062E04C096948794779467940A94D2F734
:1002200021E030E040E050E004C0220F331F441FC3
:10023000551F6A95D2F721503040404050402A2146
:100240003B214C215D21211531054105510521F04E
:1002500021E030E040E050E059016A01A628B728CB
:10026000C828D9280BC0821593052CF01C01AA249C
:10027000BB24650103C0EE24FF24870111969C91E5
:10028000D20111968C91981709F445C0992339F041
:10029000A80197012A193B094C095D0906C0A6016E
:1002A00095012E193F09400B510B57FD08C01182D3
:1002B0003382228224833583468357831DC081E0A5
:1002C00081833382228288279927DC01821B930B4A
:1002D000A40BB50B84839583A683B7830DC0220F2F
:1002E000331F441F551F24833583468357838281E0
:1002F000938101979383828324813581468157813D
:10030000DA01C9010197A109B1098F5F9F4FAF4F72
:10031000BF4328F30BC0918333822282EA0CFB1C7B
:100320000C1D1D1DE482F5820683178383E0808304
:10033000248135814681578157FF1AC0C901AA27F8
:1003400097FDA095BA2F81709070A070B0705695EF
:10035000479537952795822B932BA42BB52B848318
:100360009583A683B7838281938101969383828349
:10037000DF0101C0D201CD01CDB7DEB7E2E10C94BF
:100380002316A0E2B0E0E7ECF1E00C9413166983C9
:100390007A838B839C832D833E834F835887E9E048
:1003A000EE2EF12CEC0EFD1ECE010196B7010E943F
:1003B000E6058E010F5E1F4FCE010596B8010E9423
:1003C000E6058A8991E089278A8BC701B801AE01C9
:1003D000475E5F4F0E9475000E941105A096E6E0FF
:1003E0000C942F16A0E2B0E0E8EFF1E00C941316A5
:1003F00069837A838B839C832D833E834F835887C5
:10040000F9E0EF2EF12CEC0EFD1ECE010196B701A6
:100410000E94E6058E010F5E1F4FCE010596B801C2
:100420000E94E605C701B801AE01475E5F4F0E941A
:1004300075000E941105A096E6E00C942F16A0E22C
:10044000B0E0E5E2F2E00C94071669837A838B83CF
:100450009C832D833E834F835887CE010196BE0136
:10046000675F7F4F0E94E605CE010596BE016F5E75
:100470007F4F0E94E6059985923088F08989823005
:10048000C8F0943019F4823051F404C0843029F457
:10049000923081F489EA91E0C6C0923049F420E0BC
:1004A0009A858A89981321E02A87CE010996BBC0D4
:1004B000823049F420E09A858A89981321E02A8BBA
:1004C000CE014196B0C02D843E844F8458886D88FB
:1004D0007E888F88988CEE24FF248701AA24BB2471
:1004E000650140E050E060E070E0E0E0F0E0C10174
:1004F00081709070892BE9F0E60CF71C081D191D1E
:100500009A01AB012A0D3B1D4C1D5D1D80E090E062
:10051000A0E0B0E0E614F7040805190520F481E036
:1005200090E0A0E0B0E0BA01A901480F591F6A1F8E
:100530007B1FAA0CBB1CCC1CDD1C97FE08C081E0F5
:1005400090E0A0E0B0E0A82AB92ACA2ADB2A3196B6
:10055000E032F10549F0660C771C881C991C569412
:10056000479437942794C3CFFA85EA892B893C892D
:100570008B859C85280F391F2E5F3F4F17C0CA01FE
:1005800081709070892B61F016950795F794E79428
:1005900080E090E0A0E0B0E8E82AF92A0A2B1B2BC3
:1005A00076956795579547952F5F3F4F77FDE7CF36
:1005B0000CC0440F551F661F771F17FD4160EE0CDE
:1005C000FF1C001F111F21503040403090E05907A0
:1005D00090E0690790E4790760F32B8F3C8FDB0193
:1005E000CA018F779070A070B07080349105A1051A
:1005F000B10561F447FD0AC0E114F10401051105DC
:1006000029F0405C5F4F6F4F7F4F40781A8EFE1786
:1006100011F081E08A8F4D8F5E8F6F8F78A383E01A
:10062000898FCE0149960E941105A096E2E10C94B3
:100630002316A8E1B0E0EFE1F3E00C940F16698314
:100640007A838B839C832D833E834F835887B9E0C5
:10065000EB2EF12CEC0EFD1ECE010196B7010E948F
:10066000E6058E010F5E1F4FCE010596B8010E9470
:10067000E6052985223008F47EC03989323010F42D
:10068000B8017CC08A859A8989278A87243011F02D
:10069000223031F4231709F06EC069EA71E06EC0B0
:1006A000343039F41D861E861F86188A1C861B86E8
:1006B00004C0323021F484E08987B7015FC02B8504
:1006C0003C858B899C89281B390B3C872B87ED84C3
:1006D000FE840F851889AD88BE88CF88D88CEA142F
:1006E000FB040C051D0540F4EE0CFF1C001F111F40
:1006F000215030403C872B8720E030E040E050E044
:1007000080E090E0A0E0B0E460E070E0EA14FB0478
:100710000C051D0540F0282B392B4A2B5B2BEA18C2
:10072000FB080C091D09B695A79597958795EE0CC2
:10073000FF1C001F111F6F5F7F4F6F31710531F775
:10074000DA01C9018F779070A070B0708034910584
:10075000A105B10561F427FD0AC0E114F10401050A
:10076000110529F0205C3F4F4F4F5F4F20782D87B8
:100770003E874F87588BBE01675F7F4FCB010E943A
:1007800011056896EAE00C942B16A8E1B0E0EBECBA
:10079000F3E00C94131669837A838B839C832D83F7
:1007A0003E834F83588789E0E82EF12CEC0EFD1E26
:1007B000CE010196B7010E94E6058E010F5E1F4F24
:1007C000CE010596B8010E94E6058985823040F089
:1007D0008989823028F0C701B8010E945E0601C0F5
:1007E0008FEF6896E6E00C942F16ACE0B0E0EBEFEC
:1007F000F3E00C94171669837A838B839C83CE0174
:100800000196BE016B5F7F4F0E94E6058D818230AD
:1008100061F1823050F1843021F48E81882351F1CE
:100820002EC02F81388537FD20C06E812F313105D4
:100830001CF06623F9F023C08EE190E0821B930B3D
:1008400029853A854B855C8504C056954795379533
:1008500027958A95D2F76623B1F05095409530954B
:1008600021953F4F4F4F5F4F0EC020E030E040E0FA
:1008700050E009C02FEF3FEF4FEF5FE704C020E0EB
:1008800030E040E050E8B901CA012C96E2E00C9457
:100890003316A8E0B0E0EFE4F4E00C940F167B010F
:1008A0008C01611571058105910519F482E0898338
:1008B00060C083E089838EE1C82ED12CDC82CB829C
:1008C000ED82FE820F831887C801B7010E94C2041F
:1008D000FC013197F7FF3BC0222733272E1B3F0B2C
:1008E00057016801022E04C0D694C794B794A79408
:1008F0000A94D2F740E050E060E070E081E090E0E0
:10090000A0E0B0E004C0880F991FAA1FBB1F2A9562
:10091000D2F70197A109B1098E219F21A023B1230C
:100920000097A105B10521F041E050E060E070E0E2
:100930004A295B296C297D294D835E836F837887E3
:100940008EE190E08E1B9F0B9C838B8312C03097AF
:1009500081F00E2E04C0EE0CFF1C001F111F0A9424
:10096000D2F7ED82FE820F831887CE1ADF0ADC826F
:10097000CB821A82CE0101960E9411052896EAE0E8
:100980000C942B16EF92FF920F931F937B018C0117
:1009900080E0E81680E0F80681E0080780E01807AC
:1009A00088F48FEFE816F1040105110531F028F005
:1009B00088E090E0A0E0B0E017C080E090E0A0E028
:1009C000B0E012C080E0E81680E0F80680E008079A
:1009D00081E0180728F088E190E0A0E0B0E004C0D2
:1009E00080E190E0A0E0B0E020E230E040E050E0C4
:1009F000281B390B4A0B5B0B04C016950795F7941F
:100A0000E7948A95D2F7F701EF54FE4F8081281BB7
:100A1000310941095109C9011F910F91FF90EF90D0
:100A20000895DF92EF92FF920F931F93FC01E480F1
:100A3000F58006811781D1808081823048F480E082
:100A400090E0A0E1B0E0E82AF92A0A2B1B2BA5C010
:100A5000843009F49FC0823021F4EE24FF24870102
:100A600005C0E114F1040105110519F4E0E0F0E01E
:100A700096C0628173819FEF623879070CF05BC08A
:100A800022E83FEF261B370B2A3131052CF020E0FE
:100A900030E040E050E02AC0B801A701022E04C0B7
:100AA00076956795579547950A94D2F781E090E03F
:100AB000A0E0B0E004C0880F991FAA1FBB1F2A95B1
:100AC000D2F70197A109B1098E219F21A023B1235B
:100AD0000097A105B10521F081E090E0A0E0B0E031
:100AE0009A01AB01282B392B4A2B5B2BDA01C90168
:100AF0008F779070A070B07080349105A105B1051A
:100B000039F427FF09C0205C3F4F4F4F5F4F04C0AF
:100B1000215C3F4F4F4F5F4FE0E0F0E02030A0E01E
:100B20003A07A0E04A07A0E45A0710F0E1E0F0E03D
:100B300079018A0127C06038710564F5FB01E1582D
:100B4000FF4FD801C7018F779070A070B0708034CC
:100B50009105A105B10539F4E7FE0DC080E490E0F0
:100B6000A0E0B0E004C08FE390E0A0E0B0E0E80EC9
:100B7000F91E0A1F1B1F17FF05C016950795F7944E
:100B8000E794319687E016950795F794E7948A9550
:100B9000D1F705C0EE24FF248701EFEFF0E06E2FC0
:100BA000679566276795902F9F77D794DD24D79414
:100BB0008E2F8695492F462B582F5D29B701CA01E4
:100BC0001F910F91FF90EF90DF900895FC01DB01E2
:100BD000408151812281622F6F7770E0221F22278E
:100BE000221F9381892F880F822B282F30E0991F95
:100BF0009927991F11969C93119721153105A9F5F5
:100C0000411551056105710511F482E037C082E894
:100C10009FEF13969C938E9312979A01AB0167E016
:100C2000220F331F441F551F6A95D1F783E08C9321
:100C30000DC0220F331F441F551F12968D919C919A
:100C40001397019713969C938E931297203080E010
:100C5000380780E0480780E4580758F314962D932E
:100C60003D934D935C93179708952F3F310579F489
:100C7000411551056105710519F484E08C930895BF
:100C800064FF03C081E08C9312C01C9210C02F57E8
:100C9000304013963C932E93129783E08C9387E019
:100CA000440F551F661F771F8A95D1F770641496FD
:100CB0004D935D936D937C93179708951F93DC017B
:100CC000FB019C91923008F447C08081823008F487
:100CD00043C0943051F411961C91843099F5818170
:100CE000682F70E0611B71093FC0843021F09230A1
:100CF00031F48230B9F18181882389F12DC01196B8
:100D00001C9111978230F1F081811817D9F4129655
:100D10002D913C911397828193818217930794F0D0
:100D200028173907BCF014968D919D910D90BC91B8
:100D3000A02D2481358146815781281739074A071C
:100D40005B0718F4112341F00AC082179307A40728
:100D5000B50740F4112319F061E070E005C06FEFB2
:100D60007FEF02C060E070E0CB011F9108951F93F8
:100D70000E94D811182F0E949D128D36910519F0EE
:100D80000E949D1203C01D3699F3812F1F91089573
:100D90000F931F93DF93CF9300D000D0CDB7DEB772
:100DA00000E010E0C8016DE270E00E941F120F5FCA
:100DB0001F4F02351105B1F78DE289838A838B833A
:100DC0008C8388EC90E08E010F5F1F4FB80144E0E8
:100DD00050E00E942B128DEC90E0B80144E050E00E
:100DE0000E942B1285E590E060E070E00E941F12E7
:100DF0008AE590E060E070E00E941F120F900F9073
:100E00000F900F90CF91DF911F910F910895AF92A6
:100E1000BF92CF92DF92FF920F931F93DF93CF93F6
:100E2000CDB7DEB728970FB6F894DEBF0FBECDBFA3
:100E30000E94521480E690E00E94DB1380ED97E060
:100E400020E931E0F9013197F1F70197D9F70E94D4
:100E500052148AE690E00E94DB1300E010E020E9E3
:100E6000A22E21E0B22E6E010894C11CD11C0E945A
:100E7000B706F82E80ED97E0F5013197F1F701976D
:100E8000D9F78DE6F81699F38F2D0E941013F6010D
:100E9000E00FF11FF0820F5F1F4F043011053CF38C
:100EA00081E060E00E943D1486E790E00E94DB1341
:100EB00000E010E090E9A92E91E0B92E85E0C82E5F
:100EC000D12CCC0EDD1E0E94B706F82E80ED97E0E7
:100ED000F5013197F1F70197D9F78DE6F81699F3F7
:100EE0008F2D0E941013F601E00FF11FF0820F5FAB
:100EF0001F4F043011053CF388EC90E0BE016F5F9A
:100F00007F4F44E050E00E942B128DEC90E0B60140
:100F100044E050E00E942B1228960FB6F894DEBFF2
:100F20000FBECDBFCF91DF911F910F91FF90DF904A
:100F3000CF90BF90AF900895AF92BF92CF92DF92C3
:100F4000EF92FF920F931F93DF93CF93CDB7DEB74E
:100F500028970FB6F894DEBF0FBECDBF7C0100E02E
:100F600010E05E010894A11CB11C35E0C32ED12C09
:100F7000CC0EDD1EC801B50144E050E00E9408120D
:100F8000C8018996B60144E050E00E940812998198
:100F9000F70180819817B1F420E030E0AE014F5F97
:100FA0005F4FFA01E20FF31FD701A20FB31F908129
:100FB0008C91981761F42F5F3F4F2430310589F7EA
:100FC00080E006C00C5F1F4F0C32110599F681E0DE
:100FD00028960FB6F894DEBF0FBECDBFCF91DF913C
:100FE0001F910F91FF90EF90DF90CF90BF90AF9047
:100FF00008958F929F92AF92BF92CF92DF92EF921D
:10100000FF920F931F93DF93CF93CDB7DEB728974F
:101010000FB6F894DEBF0FBECDBF7C014B0100E0E0
:1010200010E05E010894A11CB11C45E0C42ED12C37
:10103000CC0EDD1EC801B50144E050E00E9408124C
:10104000C8018996B60144E050E00E9408129981D7
:10105000F7018081981751F520E030E0AE014F5F35
:101060005F4FFA01E20FF31FD701A20FB31F908168
:101070008C91981709F52F5F3F4F2430310589F780
:1010800020E030E0AE014B5F5F4FF401E20FF31F51
:10109000DA01A20FB31F90818C91981769F42F5F2A
:1010A0003F4F2430310589F781E007C00C5F1F4FA7
:1010B0000C32110509F0BECF80E028960FB6F894E7
:1010C000DEBF0FBECDBFCF91DF911F910F91FF907B
:1010D000EF90DF90CF90BF90AF909F908F9008954A
:1010E0008F929F92AF92BF92CF92DF92EF92FF9238
:1010F0000F931F93DF93CF93CDB7DEB72C970FB627
:10110000F894DEBF0FBECDBF6C018DE289838A8368
:101110008B838C838AE590E00E94011218161906D1
:101120006CF48AE590E00E9401120B973CF48AE58A
:1011300090E00E9401128093E40208C01092E40241
:101140008AE590E060E070E00E941F1200E010E08D
:1011500075E0A72EB12CAC0EBD1E69E0862E912C39
:101160008C0E9D1E59E2E52EF12CE00EF11EC801F9
:10117000B50144E050E00E940812C701B40144E008
:1011800050E00E9408129D81F60180819817C9F5F0
:1011900020E030E0F501E20FF31FD601A20FB31FEC
:1011A00090818C919817B1F72F5F3F4F2430310514
:1011B00029F5C8018E010F5F1F4FB80144E050E0D0
:1011C0000E942B12C701B80144E050E00E942B128C
:1011D0006091E4026F5F6093E4028AE590E070E062
:1011E0000E941F1285E590E00E940112682F615055
:1011F00085E590E070E00E941F120FC02430310599
:101200004CF20C5F1F4F0C32110509F0ABCF0E945E
:10121000521481E890E00E94DB132C960FB6F894EC
:10122000DEBF0FBECDBFCF91DF911F910F91FF9019
:10123000EF90DF90CF90BF90AF909F908F900895E8
:101240008F929F92BF92CF92DF92EF92FF920F9375
:101250001F93DF93CF93CDB7DEB760970FB6F894A7
:10126000DEBF0FBECDBF0E94521485E590E00E9404
:101270000112181619067CF485E590E00E9401120F
:101280000B974CF485E590E00E9401129093E802E0
:101290008093E70204C01092E8021092E7028AE508
:1012A00090E00E940112B82EBA9489E08B15D0F11B
:1012B00009E210E089E0882E912C8C0E9D1EBDE085
:1012C000CB2ED12CCC0EDD1EA7EDEA2EAFEFFA2EE1
:1012D000E00EF11EC701B40144E050E00E94081284
:1012E000C801B60144E050E00E94081289858D32A1
:1012F00099F4F092E602E092E5021093BA020093AC
:10130000B9028AE590E06B2D70E00E941F1287E819
:1013100090E00E94DB1322C001351105F9F00C5F4B
:101320001F4FD2CF8091E7029091E802880F991F5A
:10133000880F991F2091E5023091E602280F391F8E
:101340003093E6022093E5022091B9023091BA026F
:10135000280F391F3093BA022093B9028AE690E031
:101360000E94DB1300E010E06E010894C11CD11C48
:101370000E94B706F82E8DE6F816D1F38F2D0E9445
:101380001013F601E00FF11FF0820F5F1F4F0430C2
:10139000110574F381E060E00E943D1486E790E05F
:1013A0000E94DB1300E010E0E5E0CE2ED12CCC0E45
:1013B000DD1E0E94B706F82E8DE6F816D1F38F2DAC
:1013C0000E941013F601E00FF11FF0820F5F1F4F14
:1013D0000430110574F38E010F5F1F4FC801B60171
:1013E0000E949C07882399F18091E5029091E60282
:1013F000B80144E050E00E942B128091B902909114
:10140000BA02B60144E050E00E942B128091E5023E
:101410009091E60204969093E6028093E502809113
:10142000B9029091BA0204969093BA028093B902DD
:101430006091E7027091E8026F5F7F4F7093E8025E
:101440006093E70285E590E00E941F120AC00E94A7
:1014500052148CE890E00E94DB130E9452140E9408
:10146000200960960FB6F894DEBF0FBECDBFCF91B6
:10147000DF911F910F91FF90EF90DF90CF90BF9081
:101480009F908F900895AF92BF92CF92DF92FF927C
:101490000F931F93DF93CF93CDB7DEB760970FB64F
:1014A000F894DEBF0FBECDBF88EC90E0BE01675F51
:1014B0007F4F44E050E00E9408128DEC90E0BE01A6
:1014C000635F7F4F44E050E00E94081289858D32AF
:1014D00039F088EC90E00E9401128F3F910569F489
:1014E0000E9407070E94521489E990E00E94DB13D2
:1014F0000E9452140E944215AAC08AE690E00E94FF
:10150000DB1300E010E030E9A32E31E0B32E6E01D2
:101510000894C11CD11C0E94B706F82E80ED97E0FC
:10152000F5013197F1F70197D9F78DE6F81699F3A0
:101530008F2D0E941013F601E00FF11FF0820F5F54
:101540001F4F043011053CF381E060E00E943D1420
:1015500086E790E00E94DB1300E010E020E9A22E75
:1015600021E0B22E95E0C92ED12CCC0EDD1E0E94BA
:10157000B706F82E80ED97E0F5013197F1F7019766
:10158000D9F78DE6F81699F38F2D0E941013F60106
:10159000E00FF11FF0820F5F1F4F043011053CF385
:1015A000998189859817B9F520E030E0BE016F5F19
:1015B0007F4FAE01475F5F4FFB01E20FF31FDA0180
:1015C000A20FB31F90818C919817B1F72F5F3F4FF7
:1015D00024303105E9F420E030E0BE016B5F7F4F3D
:1015E000AE01435F5F4FFB01E20FF31FDA01A20F71
:1015F000B31F90818C919817B1F72F5F3F4F243024
:10160000310511F481E023C02430310524F4EBCFFF
:10161000243031058CF2CE010196BE016B5F7F4F05
:101620000E94F907882351F00E9452148FE990E03C
:101630000E94DB130E94521482E009C00E945214DF
:101640008DEA90E00E94DB130E94521480E06096C5
:101650000FB6F894DEBF0FBECDBFCF91DF911F91C3
:101660000F91FF90DF90CF90BF90AF900895EF92D1
:10167000FF920F931F93CF93DF93C0E9D1E00E94B5
:1016800021157C010E94521480EC90E00E94DB1333
:1016900000E010E0C801B7010E94691381E060E03A
:1016A0000E943D148EEC90E00E94DB130E94B7066E
:1016B00020ED37E0FE013197F1F721503040D1F7AE
:1016C000813381F00E94521485ED90E00E94DB137B
:1016D00088EE93E0FE013197F1F70197D9F70E9468
:1016E0005214CDCFDF91CF911F910F91FF90EF90CA
:1016F0000895CF93DF93C0E9D1E00E94521481EEA8
:1017000090E00E94DB130E94B70620ED37E0FE0157
:101710003197F1F721503040D1F7813319F08233FE
:1017200059F403C082E090E002C080E090E00E94A3
:101730000A15DF91CF9108950E94521485ED90E033
:101740000E94DB1388EE93E0FE013197F1F70197D9
:10175000D9F70E945214D1CFCF93DF93C0E9D1E0E3
:101760000E94521480EF90E00E94DB1381E060E061
:101770000E943D1480E091E00E94DB130E94B706B6
:1017800020ED37E0FE013197F1F721503040D1F7DD
:10179000823351F1833320F4813309F002C107C051
:1017A000833309F43EC0843309F0FBC05CC00E945F
:1017B000521480E191E00E94DB13C0E9D1E00E9465
:1017C000B70620ED37E0FE013197F1F721503040A8
:1017D000D1F7813319F0823391F703C00E94CC1402
:1017E000A4C00E94AE14A1C00E94521480E191E0F6
:1017F0000E94DB13C0E9D1E00E94B70620ED37E07C
:10180000FE013197F1F721503040D1F7813319F0C3
:10181000823391F703C00E94C61487C00E94A814A7
:1018200084C00E94521480E191E00E94DB13C0E961
:10183000D1E00E94B70620ED37E0FE013197F1F7C5
:1018400021503040D1F702C00E949D128D36E1F345
:10185000813319F0823369F703C00E94C01465C058
:101860000E94A21462C00E94521480E291E00E9481
:10187000DB1381E060E00E943D1480E391E00E9470
:10188000DB13C0E9D1E00E94B70620ED37E0FE018E
:101890003197F1F721503040D1F7823351F1833342
:1018A00009F44EC0813379F70E94521480E191E02F
:1018B0000E94DB13C0E9D1E00E94B70620ED37E0BB
:1018C000FE013197F1F721503040D1F7813319F003
:1018D000823391F703C00E94BA1402C00E949C1484
:1018E0000E9452148BE191E00E94DB130E9452147B
:1018F000E3CF0E94521480E191E00E94DB13C0E923
:10190000D1E00E94B70620ED37E0FE013197F1F7F4
:1019100021503040D1F7813319F0823391F703C061
:101920000E94B41402C00E9496140E9452148BE1CB
:1019300091E00E94DB130E945214DF91CF91089531
:101940000E9452148EE391E00E94DB13C0E9D1E0C3
:101950000E94B70620ED37E0FE013197F1F72150E4
:101960003040D1F7813319F0823391F70BC00E94D8
:10197000D21081E090E00E94D6100E9452148BE4B5
:1019800091E00AC00E94D2108FEF90E00E94D61022
:101990000E94521484E591E00E94DB130E945214CD
:1019A000D7CF0E94521485ED90E00E94DB1388EEA1
:1019B00093E0FE013197F1F70197D9F70E94521495
:1019C000CFCECF93DF93C0E9D1E00E9452148EE5D1
:1019D00091E00E94DB130E94B70620ED37E0FE0184
:1019E0003197F1F721503040D1F702C00E949D128B
:1019F0008D36E1F3813319F0823349F404C00E943B
:101A0000AC0B0E94E10C0E94370B0E94E10C0E947B
:101A1000521485ED90E00E94DB1388EE93E0FE0106
:101A20003197F1F70197D9F70E945214CECFCF9397
:101A3000DF93C0E9D1E00E9452148EE591E00E944C
:101A4000DB1381E060E00E943D148AE691E00E9491
:101A5000DB130E94B70620ED37E0FE013197F1F766
:101A600021503040D1F7823371F0833318F4813341
:101A7000B1F405C0833359F0843389F40CC00E945B
:101A8000AC0B0E94170D0E94370B0E94170D0E948D
:101A9000790B0E94170D0E945F0D0E94170D0E9486
:101AA000521485ED90E00E94DB1388EE93E0FE0176
:101AB0003197F1F70197D9F70E945214BCCFAF923A
:101AC000BF92CF92DF92FF920F931F93DF93CF933A
:101AD00000D000D0CDB7DEB70E94521489E791E064
:101AE0000E94DB1381E060E00E943D1489E891E0F0
:101AF0000E94DB130E949D128D36E1F38633F1F0D4
:101B0000873320F4853309F04CC007C0873309F4CC
:101B100042C0883309F045C042C085E590E00E948C
:101B200001120B971CF40E94200906C00E94521457
:101B300089E991E00E94DB130E94170D0E94521464
:101B40008DE991E00E94DB1300E010E080E9A82E0F
:101B500081E0B82E6E010894C11CD11C0E94B7060A
:101B6000F82E80ED97E0F5013197F1F70197D9F75D
:101B70008DE6F81699F38F2D0E941013F601E00FF1
:101B8000F11FF0820F5F1F4F043011053CF3C601B7
:101B90000E94700819C00E94C8060E9442150E9447
:101BA00042150E94521485ED90E00E94DB1388EEEE
:101BB00093E020E931E0F9013197F1F70197D9F786
:101BC0000E9452140E945F0D0F900F900F900F9083
:101BD000CF91DF911F910F91FF90DF90CF90BF9039
:101BE000AF9008953E9A3F9A379A329A319A089563
:101BF000369A349BFECF349A24B130E045B1942F0D
:101C000080E0282B392BC9010895813049F08130BB
:101C100028F0823039F0833041F406C06ABB089561
:101C200067BB089564BB089561BB08954423C9F15F
:101C3000413009F06EC0813099F0813030F082304F
:101C4000D1F0833009F065C021C02AB381E090E073
:101C500002C0880F991F6A95E2F7282B2ABB0895C6
:101C600027B381E090E002C0880F991F6A95E2F7E0
:101C7000282B27BB089524B381E090E002C0880F91
:101C8000991F6A95E2F7282B24BB089521B381E0C0
:101C900090E002C0880F991F6A95E2F7282B21BBBC
:101CA0000895813099F0813028F08230D9F0833066
:101CB00081F524C02AB381E090E002C0880F991F0B
:101CC0006A95E2F7809582238ABB089527B381E065
:101CD00090E002C0880F991F6A95E2F780958223F1
:101CE00087BB089524B381E090E002C0880F991F5C
:101CF0006A95E2F78095822384BB089521B381E041
:101D000090E002C0880F991F6A95E2F780958223C0
:101D100081BB0895813049F0813028F0823039F05C
:101D2000833041F406C06BBB089568BB089565BB62
:101D3000089562BB08954423C9F1413009F06EC093
:101D4000813099F0813030F08230D1F0833009F069
:101D500065C021C02BB381E090E002C0880F991FBD
:101D60006A95E2F7282B2BBB089528B381E090E019
:101D700002C0880F991F6A95E2F7282B28BB0895A7
:101D800025B381E090E002C0880F991F6A95E2F7C1
:101D9000282B25BB089522B381E090E002C0880F74
:101DA000991F6A95E2F7282B22BB0895813099F09C
:101DB000813028F08230D9F0833081F524C02BB3F4
:101DC00081E090E002C0880F991F6A95E2F7809544
:101DD00082238BBB089528B381E090E002C0880F76
:101DE000991F6A95E2F78095822388BB089525B3F1
:101DF00081E090E002C0880F991F6A95E2F7809514
:101E0000822385BB089522B381E090E002C0880F51
:101E1000991F6A95E2F78095822382BB08958130ED
:101E200051F0813030F0823041F0833041F080E079
:101E3000089589B3089586B3089583B3089580B350
:101E40000895813051F0813030F0823041F083309C
:101E500079F080E0089589B303C086B301C083B3ED
:101E600090E002C0959587956A95E2F78170089594
:101E700080B390E002C0959587956A95E2F78170EE
:101E80000895813091F0813028F08230C9F083309C
:101E900061F521C02BB381E090E002C0880F991F4B
:101EA0006A95E2F728272BBB089528B381E090E0DC
:101EB00002C0880F991F6A95E2F7282728BB08956A
:101EC00025B381E090E002C0880F991F6A95E2F780
:101ED000282725BB089522B381E090E002C0880F37
:101EE000991F6A95E2F7282722BB0895813091F067
:101EF000813028F08230C9F0833061F521C02BB3E6
:101F000081E090E002C0880F991F6A95E2F7282BC4
:101F10002BBB089528B381E090E002C0880F991F81
:101F20006A95E2F7282B28BB089525B381E090E05D
:101F300002C0880F991F6A95E2F7282B25BB0895E8
:101F400022B381E090E002C0880F991F6A95E2F702
:101F5000282B22BB08958FB780688FBF08958BB759
:101F600080648BBF85B7816085BF85B7826085BF80
:101F700008958BB780688BBF85B7846085BF85B7B0
:101F8000886085BF08958BB780628BBF089582E01B
:101F900082B986B7846086BF089584EA86BF06B694
:101FA00007FEFDCF81B1887F8830E1F7089584EA8C
:101FB00086BF06B607FEFDCF81B1887F8031E1F78D
:101FC0000895880F83B984E886BF06B607FEFDCF63
:101FD00081B1887F8831E1F70895880F816083B9E6
:101FE00084E886BF06B607FEFDCF81B1887F8034C6
:101FF000E1F7089583B984E886BF06B607FEFDCFF2
:1020000081B1887F8832E1F7089584E886BF06B6FB
:1020100007FEFDCF83B1089584E986BF089583E06C
:1020200060E041E00E94160E82E060E041E00E9424
:10203000160E82E061E041E00E94160E82E080B957
:1020400086B7846086BF089512BE13BE89B78160CB
:1020500089BF089583B7856083BF089513BE08952F
:1020600090E028EE33E0AC01429FC001439F900D09
:10207000529F900D1124AA2797FDA095BA2F37E003
:10208000B695A795979587953A95D1F720E031E0D9
:1020900040E050E0281B3109410951092093ED022D
:1020A0003093EE024093EF025093F00222BF892F4B
:1020B0009A2FAB2FBB270196A11DB11D8093E9027A
:1020C0009093EA02A093EB02B093EC02089512BE43
:1020D00083B7886083BF89B7826089BF0895EF9214
:1020E000FF920F931F9324E62CBFECB628EE33E04B
:1020F00040E050E00E94971543E0969587957795CC
:1021000067954A95D1F7FF2400E010E0A8019701F8
:102110000E94CA152093E9023093EA024093EB0231
:102120005093EC021F910F91FF90EF90089583B7A9
:10213000836083BF089583B783BF0895BB9A83B735
:10214000886683BF0895982F80E064E670E00E945F
:10215000B61561506CBF089583B7856083BF08953D
:102160008D9A8EB58B618EBD8FB582688FBD87E8E5
:1021700093E197BD86BD089527E833E1AC01429F06
:10218000C001439F900D529F900D112464E670E0B2
:102190000E94B615615070407BBD6ABD08959BBD1D
:1021A0008ABD089589E683BFBB9A08958CBF0895C0
:1021B00017BC16BC8E988EB581648EBD1FBC89B7C6
:1021C000846089BF89B7806289BF08951F920F928A
:1021D0000FB60F9211248F939F93AF93BF9380916B
:1021E000F1029091F202A091F302B091F4020196F3
:1021F000A11DB11D8093F1029093F202A093F3020E
:10220000B093F402BF91AF919F918F910F900FBE49
:102210000F901F9018951F920F920FB60F921124D6
:10222000EF92FF920F931F932F933F934F935F93E0
:102230006F937F938F939F93AF93BF93EF93FF938E
:102240008091010390910203A0910303B0910403D4
:102250000196A11DB11D8093010390930203A093E9
:102260000303B09304038091010390910203A091B2
:102270000303B09104030197A105B105B9F41092CD
:10228000F1021092F2021092F3021092F40286B55B
:1022900097B5A0E0B0E08093F5029093F602A0938A
:1022A000F702B093F8028EB58F7B2CC080910103AA
:1022B00090910203A0910303B09104030297A1053A
:1022C000B10511F5E6B4F7B46091F1027091F20234
:1022D0008091F3029091F4022FEF3FEF40E050E045
:1022E0000E94971500E010E0E60EF71E081F191F68
:1022F000E092F902F092FA020093FB021093FC02C2
:102300008EB580648EBD2DC0809101039091020333
:10231000A0910303B09104030397A105B10509F54A
:10232000E6B4F7B46091F1027091F2028091F30289
:102330009091F4022FEF3FEF40E050E00E9497159C
:1023400000E010E0E60EF71E081F191FE092FD02E4
:10235000F092FE020093FF021093000389B78F7D75
:1023600089BFFF91EF91BF91AF919F918F917F9125
:102370006F915F914F913F912F911F910F91FF901E
:10238000EF900F900FBE0F901F9018958AB1886143
:102390008AB980B5866880BD87E689B910BC8898FF
:1023A000899A88E18AB986E880BD83E389B908956E
:1023B0005F9902C08DE608958CB108955D9BFECFB4
:1023C0008CB9089520E004C05D9BFECFECB92F5F6F
:1023D000FC01E20FF11DE081EE23B1F7089580E0EA
:1023E00061E040E00E949B0E089580E061E041E0E2
:1023F0000E949B0E089580E061E041E00E94160E6D
:102400000895E199FECF9FBB8EBBE09A8DB30895EE
:10241000DC01E199FECF20E030E00DC0C9018A0F58
:102420009B1F9FBB8EBBE09A8DB3FB01E20FF31F96
:1024300080832F5F3F4F2417350780F30895E1997C
:10244000FECF9FBB8EBBE09A8DB3861719F06DBB94
:10245000E29AE19A0895DC0120E030E014C0E199AD
:10246000FECFC9018A0F9B1F9FBB8EBBE09A8DB325
:10247000FB01E20FF31FE0818E1719F0EDBBE29A2A
:10248000E19A2F5F3F4F2417350748F30895AF9225
:10249000BF92CF92DF92EF92FF920F931F93DF9341
:1024A000CF93CDB7DEB760970FB6F894DEBF0FBEFF
:1024B000CDBFDE011196EBEBF2E088E001900D92CA
:1024C0008150E1F700E010E099E0E92EF12CEC0EEC
:1024D000FD1E81E1A82EB12CAC0EBD1E6E0108942C
:1024E000C11CD11CC701B80148E050E00E9408128D
:1024F000F70180818F3F39F0C601B80148E050E014
:102500000E942B1204C03196EA15FB0591F7085F73
:102510001F4F0835110531F760960FB6F894DEBFEE
:102520000FBECDBFCF91DF911F910F91FF90EF9024
:10253000DF90CF90BF90AF9008950F931F9300E06E
:1025400082E060E041E00E949B0E82E061E041E0B9
:102550000E949B0E82E062E041E00E949B0E82E0BE
:1025600063E041E00E949B0E82E0602F40E00E9409
:102570009B0E10E0612F6C5F82E00E94210F882388
:1025800061F4E02FF0E0EE0FFF1FEE0FFF1FE10FF1
:10259000F11DED52FD4F808107C01F5F143051F7D0
:1025A0000F5F043069F68DE61F910F91089582E068
:1025B00060E041E00E94160E82E061E041E00E948E
:1025C000160E82E062E041E00E94160E82E063E0B7
:1025D00041E00E94160E82E064E040E00E94160E88
:1025E00082E065E040E00E94160E82E066E040E096
:1025F0000E94160E82E067E040E00E94160E82E024
:1026000064E00E94760F82E065E00E94760F82E02F
:1026100066E00E94760F82E067E00E94760F0895E0
:10262000EF92FF920F931F93F82E082F10E0C8012E
:102630000E94DE1181E061E041E00E949B0E81E09A
:1026400062E040E00E949B0E81E060E040E00E947A
:102650009B0E80E00E940F0F90EFF922682F6F70A1
:102660006F2980E00E948A0E81E060E041E00E94D4
:102670009B0E20EAE22E2FE0F22EC7010197F1F720
:1026800081E060E040E00E949B0E80E00E940F0F1E
:1026900094E0000F111F9A95E1F7682F6F70602B7F
:1026A00080E00E948A0E81E060E041E00E949B0E83
:1026B000C7010197F1F781E060E040E00E949B0EC6
:1026C00080E29EE40197F1F71F910F91FF90EF9048
:1026D00008956F927F928F929F92AF92BF92CF9206
:1026E000DF92EF92FF920F931F935B016C0197FFB4
:1026F0000BC08DE20E941013D094C094B094A094AB
:10270000A11CB11CC11CD11C31E0632E712C812C89
:10271000912C20C0C401B3012AE030E040E050E039
:102720000E9497157B018C01C601B5010E94EC1532
:102730003B014C016E0C7F1C801E911EC601B50131
:102740002AE030E040E050E00E94EC15C901DA01D7
:102750005C016D01A114B104C104D104D9F618C003
:10276000C401B3012AE030E040E050E00E94EC15E3
:10277000862F805D0E941013C401B3012AE030E06F
:1027800040E050E00E94EC15C901DA013C014D0126
:1027900082E0681671048104910414F71F910F916F
:1027A000FF90EF90DF90CF90BF90AF909F908F9071
:1027B0007F906F9008951F93CF93DF93EC010E9459
:1027C000E21110E003C00E9410131F5FFE01E10F31
:1027D000F11D80818823B9F7DF91CF911F91089572
:1027E000FF920F931F93F82E81E061E040E00E947A
:1027F0009B0E81E062E040E00E949B0E81E060E081
:1028000040E00E949B0E80E00E940F0F6F2D607FC2
:102810008F70682B80E00E948A0E81E060E041E0CA
:102820000E949B0E00EA1FE0C8010197F1F781E0CA
:1028300060E040E00E949B0E80E00E940F0FF29447
:1028400040EFF422682F6F706F2980E00E948A0E9B
:1028500081E060E041E00E949B0EC8010197F1F722
:1028600081E060E040E00E949B0E80E29EE40197E0
:10287000F1F71F910F91FF900895DF93CF9300D050
:10288000CDB7DEB790E8998390EC9A83FE01E80F0C
:10289000F11D8181860F0E94F0130F900F90CF9150
:1028A000DF91089581E061E041E00E94160E81E031
:1028B00062E041E00E94160E81E060E041E00E948B
:1028C000160E80E064E041E00E94160E80E065E0B4
:1028D00041E00E94160E80E066E041E00E94160E84
:1028E00080E067E041E00E94160E88EE93E020E968
:1028F00031E0F9013197F1F70197D9F783E30E94AD
:10290000F01382E30E94F01388E20E94F0138CE03F
:102910000E94F01381E00E94F01382E00E94F01305
:10292000089581E065E00E94410F089583E066E02C
:1029300040E00E949B0E089581E067E040E00E9425
:102940009B0E089581E066E040E00E949B0E089592
:1029500081E065E040E00E949B0E089581E064E024
:1029600040E00E949B0E089583E066E041E00E94F3
:102970009B0E089581E067E041E00E949B0E089560
:1029800081E066E041E00E949B0E089581E065E0F1
:1029900041E00E949B0E089581E064E041E00E94C6
:1029A0009B0E089583E066E041E00E94160E0895B4
:1029B00081E067E041E00E94160E089581E066E044
:1029C00041E00E94160E089581E065E041E00E941A
:1029D000160E089581E064E041E00E94160E08950D
:1029E00081E064E041E00E94160E81E065E041E094
:1029F0000E94160E81E066E041E00E94160E81E022
:102A000067E041E00E94160E83E066E041E00E942C
:102A1000160E0895813041F0813018F0823069F44B
:102A200008C081E690E002C08CE391E00E94CF10E4
:102A3000089587E192E00E94CF1008950E94B0109F
:102A400008950E94F80DA0E0B0E0BC01CD010E9405
:102A5000490426EF38E24CE950E40E941F0220E0CE
:102A600030E040EA51E40E94190320E030E040E801
:102A70005FE30E94F2010E944900CB0108950E9489
:102A8000F20D08951F93CF93DF930E94FB110E94D4
:102A900052140E94D7120E943F150E94F0140E9407
:102AA0001E150E94C6110E94430A10E0C0E9D1E041
:102AB00010C01F5F133059F40E94F51188E893E1AC
:102AC000FE013197F1F70197D9F70E94EF110E94AB
:102AD000430A882371F3813091F482E00E940A1541
:102AE00088E893E120E931E0F9013197F1F70197A6
:102AF000D9F780E00E940A150E94170D12C082309B
:102B000081F40E940A1588E893E120E931E0F90197
:102B10003197F1F70197D9F780E00E940A150E94DA
:102B2000E10C80E090E0DF91CF911F910895629FCA
:102B3000D001739FF001829FE00DF11D649FE00DB5
:102B4000F11D929FF00D839FF00D749FF00D659F16
:102B5000F00D9927729FB00DE11DF91F639FB00D15
:102B6000E11DF91FBD01CF0111240895AA1BBB1B54
:102B700051E107C0AA1FBB1FA617B70710F0A61B7D
:102B8000B70B881F991F5A95A9F780959095BC019E
:102B9000CD010895A1E21A2EAA1BBB1BFD010DC099
:102BA000AA1FBB1FEE1FFF1FA217B307E407F507FD
:102BB00020F0A21BB30BE40BF50B661F771F881FD9
:102BC000991F1A9469F760957095809590959B016F
:102BD000AC01BD01CF01089597FB092E05260ED04B
:102BE00057FD04D0D7DF0AD0001C38F4509540952B
:102BF000309521953F4F4F4F5F4F0895F6F79095D1
:102C00008095709561957F4F8F4F9F4F08952F92BC
:102C10003F924F925F926F927F928F929F92AF926C
:102C2000BF92CF92DF92EF92FF920F931F93CF93B9
:102C3000DF93CDB7DEB7CA1BDB0B0FB6F894DEBF50
:102C40000FBECDBF09942A88398848885F846E8476
:102C50007D848C849B84AA84B984C884DF80EE80C0
:102C6000FD800C811B81AA81B981CE0FD11D0FB6C9
:102C7000F894DEBF0FBECDBFED010895F894FFCFED
:102C80006164642061646D696E0075736572206EA5
:102C9000616D653A200070617373776F72643A20DA
:102CA000006572726F7200646F6E6500616E746FA2
:102CB00074686572206F6E65006164646564006CA1
:102CC0006F67696E20737563636573730077726FE6
:102CD0006E672070617373206F7220757365720068
:102CE00074656D70657261747572653D2000312D7B
:102CF0006261636B0077726F6E6720696E707574C6
:102D000000312D6F70656E20322D636C6F7365001E
:102D1000312D726F6F6D3120322D726F6F6D3200F9
:102D2000332D726F6F6D332020342D6D6F726500FF
:102D3000312D4F4E20322D4F464600646F6E650098
:102D4000312D726F6F6D3420322D726F6F6D3500C3
:102D5000332D64696D6D6572206C616D7000312D6D
:102D600035302520322D3130302500646F6E6520DE
:102D700035302500646F6E65203130302500312DEF
:102D80006C65642020322D414300332D646F6F72D7
:102D90002020342D6D6F726500352D616464202014
:102DA000362D72656D6F766500372D726573746FA1
:102DB000726520382D6F7574006D617800656E74D2
:102DC000657220757365723A000000000000000013
:102DD00000000102020303030304040404040404C6
:102DE0000405050505050505050505050505050594
:102DF0000506060606060606060606060606060674
:102E00000606060606060606060606060606060662
:102E10000607070707070707070707070707070743
:102E20000707070707070707070707070707070732
:102E30000707070707070707070707070707070722
:102E40000707070707070707070707070707070712
:102E500007080808080808080808080808080808F3
:102E600008080808080808080808080808080808E2
:102E700008080808080808080808080808080808D2
:102E800008080808080808080808080808080808C2
:102E900008080808080808080808080808080808B2
:102EA00008080808080808080808080808080808A2
:102EB0000808080808080808080808080808080892
:102EC0000808080808080808080808080808080882
:102ED0000832323939303030302900FFFFFFFFFF30
:102EE000FFFFFF3738392F3435362A3332312D631F
:102EF000303D2B3738392F3435362A3132332D6374
:042F0000303D2B0035
:00000001FF
